{
  "contractName": "Heritage",
  "abi": [
    {
      "inputs": [
        {
          "name": "_lastWord",
          "type": "string"
        },
        {
          "name": "_toAddress",
          "type": "address"
        }
      ],
      "payable": true,
      "stateMutability": "payable",
      "type": "constructor"
    },
    {
      "anonymous": false,
      "inputs": [
        {
          "indexed": false,
          "name": "sender",
          "type": "address"
        },
        {
          "indexed": false,
          "name": "TargetAddress",
          "type": "address"
        },
        {
          "indexed": false,
          "name": "money",
          "type": "uint256"
        }
      ],
      "name": "sent",
      "type": "event"
    },
    {
      "constant": false,
      "inputs": [],
      "name": "die",
      "outputs": [],
      "payable": true,
      "stateMutability": "payable",
      "type": "function"
    },
    {
      "constant": true,
      "inputs": [],
      "name": "loadLastWords",
      "outputs": [
        {
          "name": "x",
          "type": "string"
        }
      ],
      "payable": false,
      "stateMutability": "view",
      "type": "function"
    },
    {
      "constant": true,
      "inputs": [],
      "name": "loadBalance",
      "outputs": [
        {
          "name": "amount",
          "type": "uint256"
        }
      ],
      "payable": false,
      "stateMutability": "view",
      "type": "function"
    }
  ],
  "bytecode": "0x60806040526040516106003803806106008339810180604052604081101561002657600080fd5b81019080805164010000000081111561003e57600080fd5b8281019050602081018481111561005457600080fd5b815185600182028301116401000000008211171561007157600080fd5b50509291906020018051906020019092919050505033600260006101000a81548173ffffffffffffffffffffffffffffffffffffffff021916908373ffffffffffffffffffffffffffffffffffffffff16021790555081600090805190602001906100dd929190610126565b5080600160006101000a81548173ffffffffffffffffffffffffffffffffffffffff021916908373ffffffffffffffffffffffffffffffffffffffff16021790555050506101cb565b828054600181600116156101000203166002900490600052602060002090601f016020900481019282601f1061016757805160ff1916838001178555610195565b82800160010185558215610195579182015b82811115610194578251825591602001919060010190610179565b5b5090506101a291906101a6565b5090565b6101c891905b808211156101c45760008160009055506001016101ac565b5090565b90565b610426806101da6000396000f3fe608060405260043610610057576000357c0100000000000000000000000000000000000000000000000000000000900463ffffffff16806335f469941461005c5780638f429f8114610066578063f638b989146100f6575b600080fd5b610064610121565b005b34801561007257600080fd5b5061007b6102dd565b6040518080602001828103825283818151815260200191508051906020019080838360005b838110156100bb5780820151818401526020810190506100a0565b50505050905090810190601f1680156100e85780820380516001836020036101000a031916815260200191505b509250505060405180910390f35b34801561010257600080fd5b5061010b61037f565b6040518082815260200191505060405180910390f35b600260009054906101000a900473ffffffffffffffffffffffffffffffffffffffff1673ffffffffffffffffffffffffffffffffffffffff163373ffffffffffffffffffffffffffffffffffffffff1614151561017d57600080fd5b60003073ffffffffffffffffffffffffffffffffffffffff16319050600160009054906101000a900473ffffffffffffffffffffffffffffffffffffffff1673ffffffffffffffffffffffffffffffffffffffff166108fc829081150290604051600060405180830381858888f19350505050158015610201573d6000803e3d6000fd5b507f570e6727d8aecbd70b2b62942bafdd52df16512778cd1454a51e2e164871938633600160009054906101000a900473ffffffffffffffffffffffffffffffffffffffff163073ffffffffffffffffffffffffffffffffffffffff1631604051808473ffffffffffffffffffffffffffffffffffffffff1673ffffffffffffffffffffffffffffffffffffffff1681526020018373ffffffffffffffffffffffffffffffffffffffff1673ffffffffffffffffffffffffffffffffffffffff168152602001828152602001935050505060405180910390a150565b606060008054600181600116156101000203166002900480601f0160208091040260200160405190810160405280929190818152602001828054600181600116156101000203166002900480156103755780601f1061034a57610100808354040283529160200191610375565b820191906000526020600020905b81548152906001019060200180831161035857829003601f168201915b5050505050905090565b6000600260009054906101000a900473ffffffffffffffffffffffffffffffffffffffff1673ffffffffffffffffffffffffffffffffffffffff163373ffffffffffffffffffffffffffffffffffffffff161415156103dd57600080fd5b3073ffffffffffffffffffffffffffffffffffffffff163190509056fea165627a7a723058206fa5a9e4bfebfa5fe5965f621947de483242500df253e9828814976c86a25f480029",
  "source": "pragma solidity 0.5.0;\r\n\r\ncontract Heritage {\r\n    string lastWord;\r\n    address payable to;\r\n    address payable owner;\r\n    uint password;\r\n    \r\n    // Record the \"sending event\"\r\n    event sent(\r\n        address sender,\r\n        address TargetAddress, \r\n        uint money\r\n    );\r\n    \r\n    // The function which have set onlyOwner, can be triggle \r\n    // by owner only (owner defined in constructor)\r\n    modifier onlyOwner(){\r\n        require(msg.sender == owner);\r\n        _;      // Do the actions\r\n    }\r\n\r\n    constructor (\r\n        string memory _lastWord, \r\n        address payable _toAddress\r\n    ) \r\n        public payable\r\n    {\r\n        owner = msg.sender;\r\n        lastWord = _lastWord;\r\n        to = _toAddress; \r\n    }\r\n\r\n    function die() public payable onlyOwner{\r\n        uint256 remain = address(this).balance;\r\n        // to.send(remain);\r\n        to.transfer(remain);\r\n        emit sent(msg.sender, to, address(this).balance);\r\n    }\r\n    \r\n    function loadLastWords() public view returns (string memory x) {\r\n        return lastWord;\r\n    }\r\n    \r\n    function loadBalance() public view onlyOwner returns (uint amount){\r\n        return address(this).balance;\r\n    } \r\n}",
  "sourcePath": "D:/Program/ethereum/myDeadline/node/contracts/Heritage.sol",
  "compiler": {
    "name": "solc",
    "version": "0.5.0+commit.1d4f565a.Emscripten.clang"
  },
  "schemaVersion": "3.0.1",
  "updatedAt": "2019-01-17T07:33:44.796Z",
  "devdoc": {
    "methods": {}
  },
  "userdoc": {
    "methods": {}
  }
}